:020000040800F2
:10000000F0CA002029030008755300087D4300084A
:1000100015530008A1110008A97400080000000091
:10002000000000000000000000000000690200085D
:10003000CD16000800000000C5020008096A00088B
:100040004303000843030008430300084303000878
:100050004303000843030008CF16000843030008C9
:1000600043030008DD160008E316000843030008F8
:100070004303000843030008430300084303000848
:100080004303000843030008430300084303000838
:10009000A51100084303000843030008E9160008FF
:1000A0004303000843030008430300084303000818
:1000B0004303000843030008430300084303000808
:1000C00043030008430300084303000843030008F8
:1000D0004303000835730008430300084D7300080C
:1000E000D516000843030008430300084303000833
:1000F00043030008430300084303000843030008C8
:1001000043030008430300084303000843030008B7
:1001100043030008430300084303000843030008A7
:10012000430300084D130008591300082D1600085A
:100130004303000843030008430300084303000887
:10014000B1110008430300084303000843030008FB
:10015000391600084516000843030008017400081A
:100160004303000843030008430300084303000857
:100170004303000843030008430300080000000095
:10018000430300084303000800F002F800F05CF8A5
:100190000AA090E8000C82448344AAF10107DA45E2
:1001A00001D100F051F8AFF2090EBAE80F0013F0D8
:1001B000010F18BFFB1A43F001031847C0220100CA
:1001C000E02201000A444FF0000C10F8013B13F04C
:1001D000070408BF10F8014B1D1108BF10F8015BA0
:1001E000641E05D010F8016B641E01F8016BF9D193
:1001F00013F0080F1EBF10F8014BAD1C0C1B09D1EA
:100200006D1E58BF01F801CBFAD505E014F8016B5B
:1002100001F8016B6D1EF9D59142D6D370470000ED
:100220000023002400250026103A28BF78C1FBD8FF
:10023000520728BF30C148BF0B6070471FB510F090
:1002400017FE1FBD10B510BD00F091FA1146FFF763
:10025000F5FF0CF0E1FD00F0AFFA03B4FFF7F2FF99
:1002600003BC00F0BFFA00002C4B19680868B0E826
:10027000F04F80F30988BFF36F8F4FF0000080F3D9
:10028000118870470000000008480068006880F38B
:1002900008884FF0000080F3148862B661B6BFF39F
:1002A0004F8FBFF36F8F00DF00BF00BF08ED00E08E
:1002B000DFF80C00016841F470010160704700BF75
:1002C00088ED00E0EFF30980BFF36F8F134B1A68DE
:1002D0001EF0100F08BF20ED108A20E9F04F1060CB
:1002E00009B44FF0500080F31188BFF34F8FBFF374
:1002F0006F8F0EF0D7FB4FF0000080F3118809BC20
:1003000019680868B0E8F04F1EF0100F08BFB0EC95
:10031000108A80F30988BFF36F8F70473000002088
:10032000EFF30580704700000948804709480047FF
:10033000FEE7FEE7FEE7FEE7FEE7FEE7FEE7FEE795
:10034000FEE7FEE704480549054A064B70470000F2
:10035000BD6A000889010008F08A0020F0CA002068
:10036000F0AA0020F0AA00209FED1A1AF5EE000A6C
:1003700040EE010ABDEEE00AF5EEC00A10EE100AEA
:10038000F1EE10FA38BF401E00EE100A1349F7EEE6
:10039000001AB8EEC00A30EEC00ADFED0F0A20EEF8
:1003A000200AFCEEC00A10EE900AC0F3080000EE2E
:1003B000900A01EB8000F8EE600A90ED011A70EEF1
:1003C000600A90ED000A71EEE01A21EE800A00EE5C
:1003D000810A704783F9223E00000044B4190108E5
:1003E000DFED190AB5EEC00A60EE200ABDEEE01A94
:1003F00011EE100AF1EE10FA38BF401E00EE100A9E
:100400001349F7EE001AB8EEC00A30EEC00ADFED6D
:100410000F0A60EE200ABCEEE00A10EE100AC0F3EC
:10042000080000EE100A01EB8000B8EE400A90EDE3
:10043000011A70EEC00A90ED000A71EEE01A21EE8A
:10044000800A00EE810A704783F9223E00000044D2
:10045000B419010853EA020C00F069802DE9F04B51
:100460004FF00006002B1FBFB3FA83F503FA05F423
:1004700024FA05F65E4012BF1643B2FA82F502FA7C
:1004800005F4C5F120051EBF22FA05FC44EA0C0460
:10049000203556EA044C4FEA144418BF641C4FF050
:1004A00000084FF00009904271EB030C39D300298A
:1004B00019BFB1FA81F701FA07F6B0FA80F700FA2E
:1004C00007F6C7F120071EBF20FA07FC46EA0C0614
:1004D0002037B6FBF4FCA7EB0507103F07F01F0B16
:1004E000CBF120060CFA0BFB2CFA06F644BFB34600
:1004F0000026202FA4BF5E464FF0000B5BEA060CDF
:1005000008BF4FF0010B19EB0B09ABFB027C48EB6A
:100510000608C01B06FB02CC0BFB03CC71EB0C01E5
:10052000C1E70B46024641464846BDE8F08B13B58D
:100530004FF000004FF00001AFF30080BDE81C4019
:10054000704710B5431C02E010F8011B71B1810720
:10055000FAD14FF0013202C88C1A8C4314EAC2114E
:10056000F9D0C01A0A0603D0C01E10BDC01A10BDB3
:100570000A0401D0801E10BD0902FCD0401E10BD2F
:10058000032A40F2308010F0030C00F0158011F8BF
:10059000013BBCF1020F624498BF11F801CB00F897
:1005A000013B38BF11F8013BA2F1040298BF00F8EB
:1005B00001CB38BF00F8013B11F0030300F02580A8
:1005C000083AC0F0088051F8043B083A51F804CBCF
:1005D000A0E80810F5E7121D5CBF51F8043B40F895
:1005E000043BAFF30080D20724BF11F8013B11F8A0
:1005F00001CB48BF11F8012B24BF00F8013B00F8E4
:1006000001CB48BF00F8012B704710B5203AC0F06D
:100610000B80B1E81850203AA0E81850B1E8185003
:10062000A0E81850BFF4F5AF5FEA027C24BFB1E840
:100630001850A0E8185044BF18C918C0BDE81040B1
:100640005FEA827C24BF51F8043B40F8043B08BFBA
:100650007047D20728BF31F8023B48BF11F8012B81
:1006600028BF20F8023B48BF00F8012B704702F07A
:10067000FF0343EA032242EA024200F002B84FF0CD
:1006800000020429C0F0128010F0030C00F01B805F
:10069000CCF1040CBCF1020F18BF00F8012BA8BF6D
:1006A00020F8022BA1EB0C0100F00DB85FEAC17C31
:1006B00024BF00F8012B00F8012B48BF00F8012BE4
:1006C00070474FF0000200B5134694469646203915
:1006D00022BFA0E80C50A0E80C50B1F12001BFF4FB
:1006E000F7AF090728BFA0E80C5048BF0CC05DF861
:1006F00004EB890028BF40F8042B08BF704748BFAF
:1007000020F8022B11F0804F18BF00F8012B704722
:1007100070477047704710B500F00CF8006810BDC6
:1007200010B5044600F006F8046010BD004870479C
:100730008C8A0020004870478C8A00201FB584B046
:1007400000200A9C06AB04AA02A90094AFF3008023
:1007500018B1DDE9020108B010BD0348204000F0E7
:1007600039F800200146F6E70000207C7047754606
:10077000FFF7DCFFAE4605006946534620F0070050
:10078000854618B020B5FFF7DDFDBDE820404FF0ED
:1007900000064FF000074FF000084FF0000B21F06B
:1007A0000701AC46ACE8C009ACE8C009ACE8C00938
:1007B000ACE8C0098D46704710B50446AFF3008021
:1007C0002046BDE81040FFF748BD002801D000F0EA
:1007D00009B8704710B500F025F8BDE81040FFF7E4
:1007E000F4BF000001491820ABBEFEE7260002005E
:1007F00070B505460C460A2000E06D1C00F068F854
:1008000035B128780028F8D102E0641C00F060F8C7
:1008100014B120780028F8D1BDE870400A2000F01B
:1008200057B8000010B5022803D0410103D50DA12F
:1008300012E0002010BD010101D50FA10CE0C100A4
:1008400001D511A108E0810001D512A104E040000A
:1008500001D513A100E0002115A0FFF7C9FF012079
:1008600010BD0000496E76616C6964204F7065723E
:100870006174696F6E0000004469766964652042A6
:1008800079205A65726F00004F766572666C6F77DB
:1008900000000000556E646572666C6F77000000A2
:1008A000496E657861637420526573756C740000DD
:1008B0005349474650453A2041726974686D6574E2
:1008C000696320657863657074696F6E3A20000013
:1008D00008B569468DF800000320ABBE08BD0000D6
:1008E000464910B54A6822F440324A604A68436873
:1008F0001A434A6001684A6822F480724A600168BB
:100900004A68036942EA03224A6001684A6822F0A1
:1009100040724A6001684A6883681A434A60016805
:100920008A6822F400628A6001688A68C3681A4390
:100930008A60816A6FF07062D14201688A6822F031
:1009400070628A6001688A680CD0836A1A438A6080
:1009500001688A6822F040528A6001688A68C36A26
:100960001A4301E022F040528A6001688A6822F04E
:1009700002028A6001688A68037E42EA43028A6052
:1009800090F82010002901684A680FD042F40062F4
:100990004A6001684A6822F460424A6001684A6815
:1009A000174C436A04EB43331A4301E022F400621C
:1009B0004A600168CA6A22F47002CA620168CA6A9F
:1009C000838B104C04EB03531A43CA6201688A6894
:1009D00022F400728A6001688A6890F8303042EA36
:1009E00043228A6001688A6822F480628A60016812
:1009F0008A68406942EA8020886010BD0023014077
:100A000000E0FFFF0000F0FF06F08ABD07F08CB8A1
:100A1000FFF7AABCF0EE400AF5EEC00AF1EE10FABC
:100A200002DDB0EE600A7047B1EE600AFBE700003D
:100A3000002803D09FED020A80ED000A70470000F5
:100A400000000000002803D0B3EE060A80ED000A83
:100A50007047000070B52DED0C8B84B006460C4637
:100A600015469FED990AF0EE408A9FED970AB0EE89
:100A7000409A9FED950AF0EE40BA9FED930AF0EE92
:100A8000409A9FED910AB0EE40AA0EB104B11DB993
:100A900004B0BDEC0C8B70BD8C48FFF7C9FF8C48CF
:100AA000FFF7D0FF8A48D0ED000A9FED8A1A60EE6A
:100AB000810AB0EE600A00F025F9F0EE408A28EED7
:100AC000A80AF0EE408A8248D0ED000AB0EE001A83
:100AD00060EE810A9FED7F1A60EE810AB0EE600A37
:100AE00000F010F9B0EE409A29EE090AB0EE409AF3
:100AF000DFED790AB7EE000A00EEA80ADFED770A0B
:100B000000EEC90ADFED760A20EE200A754880ED76
:100B1000000A6E4890ED000ADFED730A80EE201A9D
:100B2000B7EE000A31EE000A20EE000A6D48D0ED63
:100B3000000A80EE801A6D4880ED001A94ED000ADC
:100B4000B5EEC00AF1EE10FA0DD194ED010AB5EE42
:100B5000C00AF1EE10FA06D194ED020AB5EEC00A11
:100B6000F1EE10FA46D09FED580AB0EE408A002010
:100B7000019002900390D4ED000A60EEA00A94ED7B
:100B8000011AD4ED011A41EE210A94ED021AD4EDB6
:100B9000021A41EE210AB0EE600A00F0A9F8B0EEA8
:100BA000408A94ED000A20EE080A8DED010A94EDCA
:100BB000010A20EE080A8DED020A94ED020A20EEE9
:100BC000080A8DED030ADDED010AF1EE600AB0EED0
:100BD000600AFFF719FFF0EE409A9DED031AF0EE60
:100BE000410A9DED021AB0EE410AFFF70FFFB0EE89
:100BF00040AA07E09FED340AF0EE409A9FED320ADA
:100C0000B0EE40AA95ED000AB5EEC00AF1EE10FA7A
:100C10000DD195ED010AB5EEC00AF1EE10FA06D13C
:100C200095ED020AB5EEC00AF1EE10FA3CD0B0EE36
:100C3000690A00F067F8B0EE408AB0EE690AFFF783
:100C4000E7FEB0EE40DAB0EE4A0A00F05BF8F0EEF4
:100C500040AAB0EE4A0AFFF7DBFEB0EE40BA28EE3B
:100C60002A0AD5ED010A20EE200AD5ED000A0DEE84
:100C7000200A68EE0B0A95ED021A00EE810AB0EE2A
:100C800040CA95ED010A20EE0B0AD5ED020A0AEEE4
:100C9000E00AF0EE40CAF0EE6C0AB0EE4C0AFFF744
:100CA000B5FEF0EE40BA03E09FED070AF0EE40BA61
:100CB000B0EE4A1AF0EE690AB0EE6B0A304609F05F
:100CC0008FFC00BFE4E600000000000028020020C6
:100CD0002C02002035FA8E3CC1BFAD3B9DF8C536D5
:100CE0002F7C1C4130020020506CC24A340200208C
:100CF00010B508F032FAB7EE001AC1EE000AB0EEF5
:100D0000600A10BDFFF76CBB2DE9F0412DED028BA1
:100D10009AB00546B0EE408A0E4617469846002027
:100D20001790189019901490159016904DB146B1E7
:100D30003FB1B8F1000F04D0B5EEC08AF1EE10FA61
:100D400005D100201AB0BDEC028BBDE8F08196ED14
:100D5000000A8DED170A96ED010A8DED180A96ED41
:100D6000020A8DED190A97ED000A8DED140A97ED30
:100D7000010A8DED150A97ED020A8DED160A17AAE4
:100D800014A9284608F074FE402104A8FFF799FC36
:100D900000200090019002900390002417A904A85D
:100DA0000DF096FB00BF30E004A800EB041090EDBE
:100DB000000AD5ED000A20EE200A04A800EB04107A
:100DC000D0ED010A95ED011A00EE810A04A800EBAE
:100DD0000410D0ED020A95ED021A00EE810A04A873
:100DE00000EB0410D0ED030A95ED031A00EE810A22
:100DF00020EE080AF0EE000A80EE201A684600EBAA
:100E0000840080ED001A601CC4B2042CCCDB0024EA
:100E100010E005EB840090ED000A684600EB8400CA
:100E2000D0ED000A30EE200A05EB840080ED000AC8
:100E3000601CC4B2042CECDB28460CF03FFF012000
:100E400080E7000001221021014801F01DBD0000D3
:100E50000000024000221021014801F015BD0000F1
:100E6000000002407047000001221146014801F0D5
:100E70000BBD00000004024000220121014801F0E6
:100E800003BD00000004024030B5437804781B0223
:100E90001BB2234300EE103A1B4CB8EEC00AD4ED4F
:100EA000000A20EE200A81ED000AC37885781B0233
:100EB0001BB22B4300EE103AD4ED000AB8EEC00A84
:100EC00020EE200A81ED010A437904791B021BB24E
:100ED000234300EE103AB8EEC00A20EE200ADFED00
:100EE0000B0A81ED020A017AC3790904807941EA8B
:100EF0000321014300EE101AB8EE400A20EE200A4A
:100F000082ED000A30BD0000FC01002000401C42C0
:100F100070470CF0DBB90AF081BD000010B54278D3
:100F20000378120212B21A4300EE102A124BB8EEE6
:100F3000C00AD3ED010A20EE200A81ED000AC27832
:100F40008478120212B2224300EE102AD3ED010A75
:100F5000B8EEC00A20EE200A81ED010A427900793C
:100F6000120212B2024300EE102AB8EEC00A20EEBE
:100F7000200A81ED020A10BDFC01002010B5FFF728
:100F800071FFFFF7C5FF09F091FC08B1802402E072
:100F900009F0F8FB044609F057FE10B144F0400098
:100FA00010BD09F0E3FD204310BD00002DE9FC4118
:100FB0000746002016460D4600900190FFF74AFFB5
:100FC000922000F0BDF806226946122000F09AF83F
:100FD000FFF738FF9DF801009DF80010000200B2F5
:100FE000084300EE100A464CB8EEC00AD4ED000AE1
:100FF00020EE200A85ED000A9DF803009DF80210FE
:10100000000200B2084300EE100AD4ED000AB8EE68
:10101000C00A20EE200A85ED010A9DF805009DF822
:101020000410000200B2084300EE100AB8EEC00A35
:1010300020EE200A85ED020AFFF71EFF082269460E
:10104000002000F05FF8FFF70FFF9DF800000F2869
:1010500030D19DF803009DF80210000200B2084351
:1010600000EE100AD4ED010AB8EEC00A20EE200A04
:1010700087ED000A9DF805009DF80410000200B2FB
:10108000084300EE100AD4ED010AB8EEC00A20EEC3
:10109000200A87ED010A9DF807009DF8061000025E
:1010A00000B2084300EE100AB8EEC00A20EE200A93
:1010B00087ED020AFFF7CEFEA22000F041F80222DF
:1010C0006946222000F01EF8FFF7BCFE9DF80000E4
:1010D0009DF80110C00040EA5110B0F5806F01DBAF
:1010E000A0F5006000EE100AB4EE001AF8EEC00A97
:1010F000B3EE070A00EE810A86ED000ABDE8FC8126
:10110000FC01002070B514460D4640F0800000F050
:1011100017F806E0552000F013F8641E05F8010BDF
:10112000E4B2002CF6D170BD10B50C4640F0800042
:1011300000F006F8552000F003F8207010BD000004
:1011400001B582B04FF47A700090012301AA02A980
:10115000024802F03BFB9DF804000EBDA4090020EC
:1011600002784078D20042EA5010B0F5806F01DB7F
:10117000A0F5006000EE100AB4EE001AF8EEC00A06
:10118000B3EE070A00EE810A81ED000A704710B540
:101190000C46FFF7D5FF2046BDE81040FFF7D0BF53
:1011A000FEE70000014800F0A4BD0000E0080020B8
:1011B000014800F09EBD00000809002038B50E4C23
:1011C0004FF4007525600025A560E56008252561C0
:1011D0000A4C050A25706070080AA070E170100AB8
:1011E00020716271180AA071E3716B4622460249B0
:1011F000034800F015FC38BDB4720020BE0000208A
:10120000E008002038B50E4C40F2FF15256000259F
:10121000A560E560082525610A4C050A2570607007
:10122000080AA070E170100A20716271180AA0719A
:10123000E3716B4622460249034800F0F1FB38BDDA
:1012400084720020AE0000200809002038B50D4A45
:1012500040F2FF130824136000239360C2E90334B3
:10126000094A040A14705070080A9070D170137102
:1012700053719371D3716B460249044800F0D0FB5F
:1012800038BD00009C720020B6000020E00800205D
:1012900038B50E4B4FF4007408251C6000249C6088
:1012A000C3E903450A4B050A1D705870080A987077
:1012B000D970100A18715A719C71DC716B46044A1E
:1012C0000249044800F0ACFB38BD0000CC7200209D
:1012D000C6000020080900202DE9F0470024DDE9C0
:1012E0000A95DDE90876DDF830A006E0C4F10208D1
:1012F000641C00F808C0032C04DA11F804C0BCF127
:10130000000FF3D110F8031F21F03801103162F300
:1013100002010170018863F389110180417867F34C
:1013200085014170818866F309018180B0F805204C
:1013300069F38C02A0F80520C18865F34F11C180C4
:1013400002896AF309020281BDE8F087014801F0D1
:1013500031B80000BC0D00202DE9F05FAB48AC4B6C
:10136000AC4CC06CAA4DAB4EA94F0068A849DFF841
:10137000A492DFF89CA2DFF89CB2DFF894E2A54AC1
:10138000483B603418351836303F09F178090AF1C6
:10139000300A4FF4006C0BF1300BAEF1180E88429E
:1013A00023D99B49543926E0A84233D14FF0200875
:1013B0000AE0504535D1E04606E000BF4FF4001882
:1013C00002E000BF4FF0006811EA080F7CD090499E
:1013D000884253D9904205D0984203D0A04201D010
:1013E000A8422FD14FF0200C45E08A49A83188420D
:1013F00003D987495839096805E086494831884248
:101400008549F8D949689042D0D09842CED0A042C0
:10141000CCD0C9E7B042CED0B842CCD04845CAD033
:10142000C7E75845CAD07045C8D0DFF8E88108F151
:1014300090084045C2D0DFF8D88108F148084045FF
:10144000C0D1BBE7B04216D0B84214D0484512D044
:10145000504510D0584509D0704507D06D4990319E
:10146000884203D06A494831884202D14FF4001CB7
:1014700001E04FF0006C66484C382AE06549A8311D
:10148000884229D9904205D0984203D0A04201D089
:10149000A84202D14FF0200C19E0B04217D0B84258
:1014A00015D0484513D0504511D0584509D0704546
:1014B00007D058499031884203D055494831884275
:1014C00003D14FF4001C02E09DE04FF0006C504847
:1014D0005038C0F800C052E04E494831884227D900
:1014E000904205D0984203D0A04201D0A84202D138
:1014F0004FF0200C18E0B04216D0B84214D0484546
:1015000012D0504510D0584509D0704507D04149F8
:101510009031884203D03E494831884202D14FF48D
:10152000001C01E04FF0006C3B48C0F80CC026E006
:10153000904205D0984203D0A04201D0A84202D1E7
:101540004FF0200C18E0B04216D0B84214D04845F5
:1015500012D0504510D0584509D0704507D02D49BC
:101560009031884203D02A494831884202D14FF451
:10157000001C01E04FF0006C2748C0F808C0274C61
:10158000207880070CD5207820F002002070207889
:1015900040F00400207001221146214801F074F946
:1015A0006078204D80070CD5607820F002006070D4
:1015B000607840F00400607001221021284601F09C
:1015C00063F9A07880070CD5A07820F00200A07005
:1015D000A07840F00400A07001221021284601F0FC
:1015E00053F90BF061FA207840070CD5207820F0F1
:1015F00004002070207840F0080020700A4801683C
:1016000041F001010160BDE8F09F0000A409002045
:101610005864024010600240006002403001002027
:101620000004024000000240103C0140014800F06C
:10163000C1BE00005C0A0020014800F0BBBE0000F3
:10164000FC0C0020014800F0B5BE00001C0E00207C
:1016500001681823CAB2103AB2FBF3F2054B6FF3DC
:101660000901032A9B5CC36500D9091D81650846F1
:1016700070470000CC12010810B5014600208B69AC
:101680008A6A4FF0C07453B1B3F5005F15D072B1E0
:10169000012A0CD0022A0AD0032A09D104E01AB187
:1016A000012A06D0022A03D1C96AC90100D5012046
:1016B00010BDC96AA142FAD010BD002AF7D0012A94
:1016C000F2D0022AF3D0032AF3D010BD70470120D4
:1016D00000F0F6BF4FF4006000F0F2BF082000F009
:1016E000EFBF102000F0ECBF202000F0E9BF7047F2
:1016F0002DE9F04F0024DDE90D95DDE90BB6DDE9BC
:10170000097A06E0C4F10208641C00F808C0032C42
:1017100004DA11F804C0BCF1000FF3D110F8031F74
:1017200021F03801283162F302010170018863F36E
:1017300089110180417867F385014170818866F3E2
:1017400009018180B0F8052069F38C02A0F805201A
:10175000C18865F34F11C180B0F8012010EE101A56
:101760006AF38E12A0F8012042886BF3CF124280F8
:101770008160BDE8F08F000010B558B1084C491EDB
:101780000BD310F8013B5340DBB234F8133083EA3B
:101790001222F4E74FF6FF7010BD104610BD000096
:1017A0007C14010810B5054C04E000BF10F8013BA3
:1017B0005340E25C491EF9D2104610BD7C1301086B
:1017C00010B50AF0B3FA032807D0042805D005287D
:1017D00003D0072801D0002010BD012010BD00005B
:1017E00078B50024009490F83C20012A19D00122F9
:1017F00080F83C200A6807230568092A13D9EE6897
:101800000A3A02EB420293409E43EE600B788A68EC
:101810000A3B03EB43039A400368DD682A43DA601E
:1018200010E0022078BD2E6902EB420293409E43F5
:101830002E610B788A6803EB43039A4003681D69A5
:101840002A431A614A681F23072A13D205686E6B60
:10185000521E02EB820293409E436E630B790A880C
:101860005B1E92B203EB83039A4003685D6B2A43CD
:101870005A6327E005680D2A12D22E6BD21F02EBA5
:10188000820293409E432E630B790A88DB1F92B23B
:1018900003EB83039A4003681D6B2A431A6311E02C
:1018A000EE6A0D3A02EB820293409E43EE620B79A0
:1018B0000A880D3B92B203EB83039A400368DD6A0A
:1018C0002A43DA62164B0568144A9D4206D10D6818
:1018D000122D03D1556845F48005556005689D4279
:1018E00018D10B68102B01D0112B13D1536843F47E
:1018F00000035360096810290CD10A490A4A096893
:10190000B1FBF2F101EB8101490000E0491E0091B9
:101910000029FBD180F83C40002078BD0023014025
:10192000002001402C00002040420F0070B5040050
:101930004FF0000503D0206C002610B107E0012015
:1019400070BD204600F01CF8666484F83C60206C92
:10195000C00610D4206C20F4885040F002002064AF
:101960002046FEF7BDFF6664206C20F0020040F0C8
:101970000100206400E0012584F83C60284670BD29
:1019800010B586B0044614216846FEF79AFE174B40
:101990002268002116489A4209D1016841F48071F9
:1019A0000160006800F48070059006B010BD114B16
:1019B0009A42FAD1026842F480620260006800F440
:1019C000806005900A481438026842F020020260E4
:1019D000006800F020000590181500900320CDE964
:1019E00001016946044800F077FEDEE7002001406F
:1019F00044380240002201400014024090F82020A8
:101A0000012A07D0022A05D0416A41F480214162AF
:101A100001207047006842690A4342610020704714
:101A2000F0B590F820500468A468012D05D0022D6F
:101A300003D0416A41F480215DE014F0406F01D190
:101A4000E50055D5C4F30164022C03D9416A41F481
:101A5000000150E00125A5401D608D684FF4C07362
:101A60009DB1CE6835434E6845EAC605066803EB6E
:101A70000417F5514FF4C275076805EB04150E699C
:101A80007E51097D012905D009E00E88CD6845EA1F
:101A90004655EBE701684E5946F480764E51117970
:101AA000D579567941EA056195792D0445EA0625EF
:101AB00029434FF4C676056806EB0416A951117840
:101AC000D57841EA0561957852782D0445EA0222DD
:101AD00011434FF4C475026805EB041551510068B9
:101AE00003EB0411425842F0010242500020F0BDC5
:101AF000416A41F4001141620120F0BD10B590F837
:101B00002020012A07D0022A05D0416A41F4802111
:101B10004162012010BD3B48D0F8002242F0010292
:101B2000C0F80022D0F8002222F47C52C0F8002233
:101B3000D0F800224B6A42EA0322C0F800220A7D54
:101B400002F01F0301229A40D0F81C329343C0F8E0
:101B50001C32CB69B3B9D0F80C329343C0F80C32C5
:101B60008C894B6864F31F434C6900EBC404C4F8D0
:101B700040320C890B6864F31F434C6900EBC404CA
:101B8000C4F84432CB69012B16D1D0F80C32134380
:101B9000C0F80C320C884B6864F31F434C6900EBAF
:101BA000C404C4F840320C89CB6864F31F434C6909
:101BB00000EBC404C4F844328B69002BD0F8043223
:101BC0000ED01343C0F804320B69002BD0F8143246
:101BD00008D01343C0F81432096A012904D008E080
:101BE0009343EFE79343F5E7D0F81C121143C0F895
:101BF0001C12D0F8001221F00101C0F800120020E0
:101C000010BD000000640040704730B590F82040DF
:101C1000012C05D0022C03D0416A41F480215DE003
:101C20000468002955D02469A40754D04FF4D8740F
:101C3000056804EB01142D5915F00405956005683D
:101C40002D594ED0ED08556005682C59C4F3400459
:101C5000D4604FF4DA74056804EB01142D5905F0D3
:101C60000F05156105682D59C5F3072595610568B0
:101C70002C59240C54614FF4DC72046802EB0112FD
:101C8000A4581C700468A458240A5C700468A45802
:101C9000240C9C700468A258120EDA704FF4DE72A5
:101CA000046802EB0112A4581C710468A458240AA9
:101CB0005C710468A458240C9C710468A258120E2C
:101CC000DA71006881B1016941F0200101610020F1
:101CD00030BDE468A8E7416A41F400114162012087
:101CE00030BD6D0D1560AFE7C16841F02001C160E6
:101CF000EDE72DE9F05F0546006800244669D0F85D
:101D000004908768D0F80CB0D0F810A0D0F81880F4
:101D1000F10748D0F90714D001218160B80703D535
:101D2000284600F02EFB0CE0780702D54FF4006443
:101D300007E0380702D54FF4805402E0284600F04F
:101D40001FFBF80516D529684FF480708860B80528
:101D500003D5284600F017FB0CE0780502D544F4C3
:101D6000005407E0380502D544F4804402E02846D8
:101D700000F008FBF80316D529684FF4803088601E
:101D8000B80303D5284600F000FB0CE0780302D529
:101D900044F4004407E0380302D544F4803402E000
:101DA000284600F0F1FA300707D55FEACB6004D58A
:101DB0002968102044F40074C86070074FF00807C9
:101DC00007D55FEA0B7004D52868C760284600F085
:101DD00099F9B00706D52868C068800702D0284660
:101DE00000F092F9700607D55FEACA6004D5296849
:101DF000102044F480640861B00607D55FEA0A70D9
:101E000004D528680761284600F08AFAF00606D54E
:101E100028680069800702D0284600F082FAB003E3
:101E200008D55FEAC96005D52968102048602846B2
:101E300000F078FAF00307D55FEA097004D5286846
:101E40004760284600F0A2FA300446D55FEA4970A0
:101E500040D5F00504D55FEAC87001D044F0010414
:101E6000B00504D55FEA887001D544F0020470051E
:101E700004D55FEA487001D544F00404300529D543
:101E800018F0700F26D008F07000402815D006DC3E
:101E9000102809D020280AD0302816D10AE050286E
:101EA0000ED0602811D10EE044F008040DE044F09B
:101EB00010040AE044F0200407E044F0400404E089
:101EC00044F0800401E044F480742868816921F0C2
:101ED00070018161296804204860002C05D0686A7F
:101EE000204368622846FFF78FFEBDE8F09F70B57B
:101EF000040003D094F8200010B104E0012070BD6C
:101F0000204600F081F82068016821F0020101609C
:101F100000F0C0FC0546052604E000F0BBFC401BB9
:101F20000A2811D8206840688007F6D42068016824
:101F300041F00101016000F0ADFC05460BE000F04E
:101F4000A9FC401B0A2806D9606A40F40030606290
:101F500084F82060D2E720684068C007EFD0207E78
:101F60000128206801683DD021F080010160607E79
:101F700001282068016838D021F040010160A07E6E
:101F800001282068016833D021F020010160E07E43
:101F90000128206801682ED041F010010160207FE7
:101FA00001282068016829D021F008010160607FC4
:101FB00001282068016824D021F004010160D4E9DF
:101FC00002010843D4E90412114308436168491E21
:101FD00008432168C86100206062012084F8200065
:101FE000002070BD41F08001C0E741F04001C5E72D
:101FF00041F02001CAE721F01001CFE741F00801CC
:10200000D4E741F00401D9E7F0B587B004461421C4
:102010006846FEF756FB364B3648DFF8D0E01968C5
:10202000D4F800C0334A03250226092710300024C3
:10203000491CF44522D11960012907D1016841F0FA
:1020400000710160006800F000700590106840F0B9
:10205000080010601068CDE9005600F00800CDE9D6
:10206000047069462448CDE9024500F035FB0022A2
:102070000621142000F012FF142032E0DFF87CE08B
:10208000F44530D1D0F800C04CF0806CC0F800C0EE
:10209000D0F800C001290CF0806CCDF814C0196094
:1020A00007D1016841F000710160006800F0007024
:1020B0000590106840F002001060106802AB00F05C
:1020C000020005906020CDE9000683E8B000694673
:1020D0000B4800F001FB00220621402000F0DEFE4C
:1020E000402000F0CDFE07B0F0BD000000640040CD
:1020F0001C00002030380240000C02400068004004
:10210000000402407047000030B5824A0168824CEA
:10211000126889B004F1500591426FD16B4602AA52
:102120000021FFF772FD00281CD10298A0F20120C7
:10213000062817D2DFE800F00305182A3D4F208853
:102140009BE060896082BDF8000040BA6081BDF804
:10215000020040BAA081BDF8040040BAE0819DF8B9
:102160000600207409B030BDA08AA083BDF800002D
:1021700040BAA082BDF8020040BAE082BDF8040077
:1021800040BA20839DF80600A076EBE7E08BE08460
:10219000BDF8000040BAE083BDF8020040BA2084D8
:1021A000BDF8040040BA60849DF8060084F824005D
:1021B000D8E728882881BDF8000040BA2880BDF8FB
:1021C000020040BA6880BDF8040040BAA8809DF8BB
:1021D0000600A871C6E768896882BDF8000040BAA9
:1021E0006881BDF8020040BAA881BDF8040040BA79
:1021F000E8819DF806002874B4E7FFE7474A1268B3
:102200009142AFD16B4602AA0021FFF7FEFC0028E5
:10221000A8D10298A0F201200828A3D2DFE800F09C
:102220004153660405182B3E9CE7208D2086BDF89F
:10223000000040BA2085BDF8020040BA6085BDF8B4
:10224000040040BAA0859DF8060084F82E0089E7B6
:10225000608E6087BDF8000040BA6086BDF802005D
:1022600040BAA086BDF8040040BAE0869DF806009A
:1022700084F8380076E734F83C0F2081BDF8000080
:1022800040BA2080BDF8020040BA6080BDF804006A
:1022900040BAA0809DF80600A07163E734F8460FAD
:1022A000EBE7A88AA883BDF8000040BAA882BDF871
:1022B000020040BAE882BDF8040040BA28839DF8C5
:1022C0000600A8764EE7E88BE884BDF8000040BA27
:1022D000E883BDF8020040BA2884BDF8040040BA83
:1022E00068849DF8060085F824003BE7288D288641
:1022F000BDF8000040BA2885BDF8020040BA6885E4
:10230000BDF8040040BAA8859DF8060085F82E00A7
:1023100028E70000E0080020E47100200809002000
:10232000704770477047000070B5044690F8200071
:10233000012804D0606A40F40020606218E00220A6
:1023400084F820002068016821F00101016000F09C
:10235000A1FA05460EE000BF00F09CFA401B0A28D7
:1023600008D9606A40F400306062052084F82000DB
:10237000012070BD20684068C007EDD1606270BD6B
:10238000704770477047704770477047704790F8C4
:102390003510022903D080214165012070470521B5
:1023A00080F835100068016821F00101016000200B
:1023B000704700002DE9F84304464FF00009CDF8BE
:1023C000009063484FF41651A56D0068B0FBF1F71B
:1023D0002E6894F85C10082000FA01F131420FD009
:1023E00021680A6852070BD50A6822F004020A60C5
:1023F00094F85C108840A860606D40F00100606552
:1024000094F85C104FF0010808FA01F0304208D04F
:1024100021684969090604D5A860606D40F0020092
:10242000606594F85C1004208840304208D0216830
:102430000968890704D5A860606D40F004006065F4
:1024400094F85C1010208840304218D02168096848
:10245000090714D5A86020680168490304D50068FD
:10246000000308D5A16C07E00168C90503D4016821
:1024700021F008010160216C09B12046884794F8D9
:102480005C1020208840304231D021680968C9069C
:102490002DD5A86094F8350005282068016806D07D
:1024A000490347D5006800031DD4616C1CE021F08E
:1024B000160101602068416921F080014161206CB2
:1024C00008B9A06C20B12068016821F00801016002
:1024D00094F85C103F208840A86084F8349084F819
:1024E0003580216D1FE0E16B09B120468847606DA2
:1024F00000282BD0606DC00714D0052084F835006B
:102500002068016821F0010101600098401C0090E2
:10251000B84203D820680068C007F6D184F8349028
:1025200084F83580E16C002910D001B02046BDE868
:10253000F04308470168C905D5D4016821F01001AE
:10254000016084F8349084F83580CCE7BDE8F883E6
:102550002C0000202DE9F041044600F09BF90646CE
:102560005CB1002584F83450022084F835002068DE
:10257000016821F0010101600DE00120BDE8F0815A
:1025800000F088F9801B052805D92020606503200C
:1025900084F83500F2E720680068C007F0D12268AF
:1025A000116820480140D4E901031843D4E90336F7
:1025B0003343184363691843A3691843E369184315
:1025C000236A18430843616A042903D1D4E90B1331
:1025D00019430843106020684069666A20F00701CB
:1025E00030460E43012704280CD1A06A0643E06A56
:1025F00040B12046FFF740F820B14020606584F8E4
:102600003570BAE7206846612046FFF721F894F854
:102610005C203F2191408160656584F83570002021
:10262000ACE700003F8010F0B0F5006F07D105491E
:1026300031F8542F521C0A804A88521C4A8000F0FC
:1026400003B80000C078002010B51B4C10281AD029
:10265000202821D008282AD0012813D10CF012FEFE
:1026600001280FD004F10C0120690CF03FF9E0685B
:10267000002807D011494FF080500860BFF34F8FFA
:10268000BFF36F8F10BD607840F001006070A078DC
:1026900040F00100A07003E0207840F001002070BD
:1026A00020790028EED0BDE810400AF0FDB9E078AE
:1026B00040F00100E07010BD3001002004ED00E0AA
:1026C000044910B50A68024202D00860FFF7ACFF67
:1026D00010BD0000143C01402DE9F84FDFF87CB13B
:1026E00000224FF001084FF0030A4FF00F090BF1E1
:1026F000040E00BF0B6808FA02F42340A3426ED117
:102700004D68022D01D0122D0ED1D50800EB850C9D
:10271000DCF820505607F70E09FA07F6B5430E69A4
:10272000BE402E43CCF82060066855000F790AFAA7
:1027300005FC07F0030726EA0C06AF4037430760A5
:102740004E68012E05D0022E03D0112E01D0122E7C
:102750000ED18668CF6826EA0C06AF403743876003
:102760004668A6430C79C4F3001494403443446093
:10277000C6688C6826EA0C06AC403443C4604C68DA
:10278000E40065D5364C256845F48045256024680D
:1027900022F0030504F480440094324C2E19D6F83C
:1027A000084895072F0F09FA07F5AC432E4DA842AC
:1027B00001D1002524E02D4DA84201D101251FE0C3
:1027C0002B4DA84201D102251AE02A4DA84201D181
:1027D000032515E0284DA84202D1042510E037E07A
:1027E000264DA84201D105250AE0254DA84201D178
:1027F000062505E0234DA84201D1072500E0082564
:10280000BD402543C6F80858DBF800405D464E68D9
:102810009C43F60300D51C432C60DEF8004075464F
:102820004E689C43B60300D51C432C600B4D083505
:102830002C684E689C43F60200D51C432C60074D63
:102840000C352C684E689C43B60200D51C432C60A6
:10285000521C102AFFF44EAFBDE8F88F003C014037
:1028600044380240003001400000024000040240B1
:1028700000080240000C0240001002400014024018
:1028800000180240001C02400AB18161704709042F
:10289000FBE700000148806870470000200000202E
:1028A00070B504001BD094F83D00002520B984F8D1
:1028B0003C50204600F042FA242084F83D00206875
:1028C000016821F00101016000F062FC4D4A61687D
:1028D000914201D84C4900E04C49884201D2012084
:1028E00070BD4B492368B0FBF1F15E6826F03F06EE
:1028F0000E435E606368934206D94FF49673594362
:102900004FF47A73B1FBF3F12368491C1E6A26F079
:102910003F06314319626168914210D84900401E58
:10292000B0FBF1F2521CC2F30B02042A01D20420C4
:1029300022E0B0FBF1F0401CC0F30B001CE0A368E8
:10294000F3B301EBC10202EB0116421EB2FBF6F239
:10295000521C42F48042120549D093B301EBC102EC
:1029600002EB0111401EB0FBF1F0401CC0F30B0064
:1029700040F4804040F400402168CA694CF6FF737F
:102980009A431043C861D4E90701084321680A68E3
:1029900022F0C00210430860D4E90301014320681B
:1029A000826848F2FF339A4311438160D4E90501FC
:1029B00008432168CA6822F0FF021043C86001E0A2
:1029C0000EE016E02068016841F001010160256415
:1029D000202084F83D00256384F83E50002070BD1F
:1029E00001EB4106421EB2FBF6F2521CB3E7012096
:1029F000C2E701EB4101401EB0FBF1F0401CC0F307
:102A00000B00B7E7A086010080841E0000093D008E
:102A100040420F002DE9FF4F83B09A46DDE9119740
:102A200093460446DDF84080FFF734FF054694F8EE
:102A30003D00202870D119230122714920460095BC
:102A400001F098FD0028F5D194F83C00012863D0EE
:102A5000012084F83C0020680168C90703D101689F
:102A600041F0010101602068016821F4006101600A
:102A7000222084F83D00402084F83E000026266491
:102A8000C4F82480A4F82A90608D20855D48E06217
:102A9000CDE9007553465A462046049901F086FC5C
:102AA00000287CD1208DD0B1012821D002282068B7
:102AB00024D0416980690090208D032869D80128BD
:102AC0002BD0514902283B464FF00002009559D0C7
:102AD0008846204601F04EFD002860D13CE0206889
:102AE000416981690091016841F40071016077E0FA
:102AF0002068016821F480610160F0E7016821F439
:102B0000806101602068016841F400610160206813
:102B100041698069009063E06FE02A4639462046AB
:102B200001F0A7FD98BB20680069616A08704EE05B
:102B30002068016841F40071016020680069616AE1
:102B40000870606A401C6062218D491E2185618D7C
:102B5000491E6185216838E02068016821F48061A0
:102B6000016020680069616A0870606A401C6062E8
:102B7000208D401E2085608D401E60853B460022D2
:102B800041460095204601F0F5FC00B9D0E706E08B
:102B9000FFE72A463946204601F06BFD18B10120B7
:102BA00007B0BDE8F08F20680069616A0870606A4C
:102BB000401C6062218D491E2185618D491E618501
:102BC00021684A69D24352070AD409690170606AD0
:102BD000401C6062208D401E2085608D401E6085F7
:102BE000208D00287FF468AF202084F83D0084F811
:102BF0003E6084F83C600020D2E70220D0E700006D
:102C0000020010000000FFFF040001002DE9FF4F4B
:102C100083B09A46DDE9119793460446DDF840807B
:102C2000FFF738FE054694F83D0020287FD1192390
:102C3000012240492046009501F09CFC002876D1F5
:102C400094F83C00012872D0012084F83C002068F0
:102C50000168C90703D1016841F0010101602068E2
:102C6000016821F400610160212084F83D004020CA
:102C700084F83E0000262664C4F82480A4F82A9034
:102C8000608D20852C48E062CDE9007553465A4698
:102C90002046049901F0FEFB70B930E02A4639461F
:102CA000204601F019FD58B1206C042804D1206899
:102CB000016841F400710160012007B0BDE8F08FA8
:102CC000606A216800780861606A401C6062218D3A
:102CD000491E89B22185628D521E62852268536920
:102CE000DB435B070BD469B100781061606A401C5C
:102CF0006062208D401E2085608D401E6085208D85
:102D00000028CBD12A463946204601F00DFC002888
:102D1000CAD154F83D0B016841F4007101602020D4
:102D200004F81E09E67766770020C6E7FFE7022071
:102D3000C3E70000020010000000FFFFF0B587B0FD
:102D4000044614216846FDF7BCFC1A4920688842F5
:102D50002DD11948016841F004010160016801F0BA
:102D600004010591016841F001010160006812242D
:102D700000F0010005904FF40070012503260427A0
:102D80008DE8F10069460D48FFF7A6FC28028DE8A2
:102D9000F10069460A48FFF79FFC074810300168B8
:102DA00041F400010160006800F40000059007B0E4
:102DB000F0BD0000005C00403038024000080240D6
:102DC0000000024002488168027811448160704727
:102DD000200000200B4810B5016841F4007101602B
:102DE000016841F480610160016841F48071016013
:102DF000032000F073F80F2000F006F800F024F82C
:102E0000002010BD003C024070B50D4D04464FF44B
:102E10007A712878B1FBF0F00A490968B1FBF0F04B
:102E200000F0C5FD48B9102C07D200222146501EE3
:102E300000F034F800206C6070BD012070BD00000F
:102E4000200000202C0000200C4882B0016841F4D2
:102E500080410160006800F4804000900748001F36
:102E6000016841F0805101600068002200F080504C
:102E700000900F21901E02B000F010B844380240BC
:102E8000002809DB00F01F02012191404009800069
:102E900000F1E020C0F8001170470000F0B40E4BC4
:102EA0001B680C46C3F30223C3F10705042D00D9A8
:102EB0000425191D072901D2002300E0DB1E01268D
:102EC00006FA05F1491E214099409E40761E1640A3
:102ED0003143F0BC04F014BB0CED00E0064900F0F7
:102EE000070208684FF6FF03184040EA0220034A31
:102EF00010430860704700000CED00E00000FA0588
:102F0000BFF34F8F05480168054A01F4E0611143A2
:102F10000160BFF34F8F00BFFDE700000CED00E044
:102F20000400FA052DE9F843054600684FF0010951
:102F3000C1074FF0000601D1400727D5DFF80C810B
:102F4000C8F86860FFF7A6FC0746414C05E000BFE3
:102F5000FFF7A0FCC01B022857D820680001F7D457
:102F600068688101287A41EA007039498431086033
:102F7000C8F86890FFF78EFC074604E0FFF78AFC6C
:102F8000C01B022841D820680001F7D528788007A7
:102F900052D52F484030016841F0805101600068EF
:102FA0002C4C00F080500090206840F4807020602D
:102FB000FFF770FC074604E0FFF76CFCC01B02281B
:102FC00023D82068C005F7D5214C7034206810F450
:102FD000407020D0A98901F4407181421BD0206843
:102FE0001D4920F44070C1F800900E6020602068F8
:102FF000C00710D0FFF74EFC064641F2883707E0C5
:10300000FFF748FC801BB84202D90320BDE8F883D3
:1030100020688007F4D5E9680D48C1F30122083023
:10302000032A0BD0016821F4F81101602068A989F6
:10303000C1F30B01084320600020E7E70268074B5B
:1030400022F4F81219400A430260EFE700004742F9
:103050000038024000700040400E4742FFFCFF0F66
:103060002DE9F0470E46050065D0DFF81481D8F849
:103070000000F7B200F00F00B04207D288F80070ED
:10308000D8F8000000F00F00B04254D128683D4C41
:10309000810712D5400703D5206840F4E050206036
:1030A0002878000703D5206840F46040206020683D
:1030B000A96820F0F000084320602878C0072DD0D0
:1030C000304968680839012812D0022813D0032833
:1030D00011D00968890700292DDA216821F0030140
:1030E00001432160FFF7D6FB814641F2883A0EE0AA
:1030F00009688903EFE709688901ECE7FFF7CAFB74
:10310000A0EB0901514502D90320BDE8F0872068F2
:10311000696800F00C00B0EB810FEFD1D8F8001017
:10312000404601F00F01B14207D90770006800F076
:103130000F00B04201D00120E7E72878400705D50D
:103140002068E96820F4E0500843206028780007F0
:1031500006D52068296920F4604040EAC10020605B
:1031600000F036F82168084AC1F30311515CC840E9
:10317000064908600F20FFF747FE0020C5E7000062
:10318000003C024008380240D41201082C00002004
:103190000448054900680968044AC1F38221515C6A
:1031A000C84070472C00002008380240E412010893
:1031B0000448054900680968044AC1F34231515C7A
:1031C000C84070472C00002008380240E412010873
:1031D000154810B5006810F00C02144813D01449BB
:1031E000042A0FD0082A0ED10F4C241F226823680E
:1031F00002F03F025B0207D52068C0F38810A0FBF5
:10320000010106E0084610BD2168C1F38811A1FB49
:1032100000010023FDF71EF92168C1F30141491C9B
:103220004900B0FBF1F010BD083802400024F40062
:10323000001BB7002DE9F84F050076D02878DFF89D
:10324000F8B2BE4CC00749D0DBF800105846C1F3B5
:103250008101012908D00068C0F3810002280AD149
:10326000201D0068400206D52068800336D56868B6
:103270000028E2D032E06868B0F5803F10D0B0F5A9
:10328000A02F206810D020F480302060206820F427
:10329000802020606868A0B1FFF7FCFA06460CE0C9
:1032A000206840F48030F4E740F480202060F7E7A5
:1032B000FFF7F0FA801B642873D820688003F7D5E5
:1032C0000CE0FFF7E7FA064605E000BFFFF7E2FA79
:1032D000801B6428F0D820688003F7D42878DFF8B2
:1032E000608280074FF000093ED5DBF80010584699
:1032F00011F00C0F09D00068C0F3810002280BD137
:103300008D48001F0068400206D42068800715D54C
:10331000E868012809D111E0E868B8B10120C8F8CF
:103320000000FFF7B7FA064605E002E1FFF7B2FA40
:10333000801B0228C0D820688007F7D5206829693B
:1033400020F0F80040EAC10020600DE0C8F80090CD
:10335000FFF7A0FA064604E0FFF79CFA801B02285C
:103360001FD820688007F7D42878000722D5724E2E
:10337000744869696C3671B101210160FFF78AFAFE
:10338000074604E0FFF786FAC01B022809D8306818
:103390008007F7D50EE0C0F80090FFF77BFA0746EC
:1033A00005E083E0FFF776FAC01B02287ED830687C
:1033B0008007F7D42878400768D5DFF87CA100277C
:1033C0000AF1380ADAF80000C0000BD4DAF800106D
:1033D00041F08051CAF80010DAF80000012700F02F
:1033E00080500090584E3068C00510D4306840F4CA
:1033F00080703060FFF74EFA009005E0FFF74AFA60
:103400000099401A022851D83068C005F6D54A4EB6
:10341000A868683601280FD00528306810D020F041
:1034200001003060306820F004003060A868B8B156
:10343000FFF730FA00900FE0306840F00100F4E749
:1034400040F004003060F7E7FFF724FA0099411AD2
:1034500041F28830814264D830688007F4D50EE0AC
:10346000FFF718FA009007E0FFF714FA0099411AE5
:1034700041F28830814254D830688007F4D42FB1AB
:10348000DAF8001021F08051CAF80010A869C0B322
:10349000DBF80010C1F3810102294AD00228484616
:1034A00007D0C8F86000FFF7F5F900E039E00546FD
:1034B0003AE04746C8F86000FFF7ECF9064604E03A
:1034C000FFF7E8F9801B02282BD820688001F7D489
:1034D000D5E907010843A96A1C4A490802EB0141E2
:1034E0006A6A41EA8211084395F82C1040EA0161AA
:1034F0001148001F016001203866FFF7CBF905462F
:1035000005E014E0FFF7C6F9401B022809D820683F
:103510008001F7D50BE000BFFFF7BCF9401B022884
:1035200002D90320BDE8F88F20688001F4D4002080
:10353000F8E70120F6E700000838024000380240B2
:1035400000004742800E4742007000400000FFFF2D
:1035500070B5040002D0607F10B106E0012070BD9C
:1035600000202077204600F049F80220607721688B
:10357000CA204862216853204862204601F0FEFFBD
:10358000FF25042618BB206881681B4A1140816012
:103590002168886862681043D4E904231A43104301
:1035A00088602168E068086120680169228941EA31
:1035B000024101612068C16821F08001C16020687A
:1035C0008068800607D4204600F024F818B12068EF
:1035D00045626677C2E72068016C21F480210164AE
:1035E0002068016CA26911430164206845620120D2
:1035F0006077002070BD0000BFFF8FFF00680349A7
:10360000884202D10249012008607047002800402A
:103610003C0E474270B504460068C16821F0A00125
:10362000C160FFF737F905464FF47A7607E000BF2F
:10363000FFF730F9401BB04201D9032070BD20686C
:10364000C0688006F4D5002070BD70B5040005D0B8
:103650000025A56294F8510010B106E0012070BD6C
:1036600084F85050204600F031F8022084F85100D0
:103670002068016821F040010160D4E9010108439C
:10368000D4E903121143084361690843218B01F413
:1036900000710843E1690843216A0843A16A0843AD
:1036A00021680860A069042101EA1040616A0843AA
:1036B000216848602068C16921F40061C1616565C5
:1036C000012084F85100002070BD00002DE9F04178
:1036D00086B0064614216846FCF7F3FF354930688A
:1036E000884264D134480024016841F4805101606B
:1036F000006800F4805005902F481438016841F0AC
:1037000002010160016801F002010591016841F0C8
:10371000010101600068022500F0010005901820F9
:10372000CDE9000502AA03274FF0050882E89001C1
:1037300069462248FEF7D0FF8020CDE9000502AAA5
:10374000694682E890011E48FEF7C6FF1E4D1D48DF
:103750007F062860C5E901744FF48068C5E9034815
:103760006C617812AC61C5E9074028466C62FEF7CF
:10377000F1FE08B1FDF7BBFFF564AE63124D1148D1
:1037800060351830E5E802074020A5E81101C002C5
:1037900045F81449AC61C5E907400B486C626030DC
:1037A000FEF7D8FE08B1FDF7A2FFB564AE6306B020
:1037B000BDE8F0810030014044380240000402407E
:1037C0000000024040640240FC0900202DE9F84F4F
:1037D000044690F8500000270A9E1D4692468B46EC
:1037E0004FF0010901280ED0012084F85000FFF7A6
:1037F00051F8804694F85100616801280CD0B1F569
:10380000827F07D102E00220BDE8F88FA16809B9E4
:10381000042801D00227C2E0BBF1000F27D0BAF183
:10382000000F24D01DB394F85100042802D00520C5
:1038300084F8510000206065C4F838A0E587A587AA
:10384000C4F830B0E586A58620646064206801680D
:10385000490603D4016841F040010160E068B0F519
:10386000006F606805D0E8B3012D46D07FE00127E6
:1038700095E008B1012D39D1206B21680088C8601E
:10388000206B801C2063E08E401EE0862EE02068C6
:10389000816889070FD5E18E69B1B9F1010F0AD1AD
:1038A000216B0988C160206B801C2063E08E401E64
:1038B000E0864FF0000920688168C9070CD0E18FCD
:1038C00051B1C068A16B0880A06B801CA063E08F21
:1038D000401EE0874FF00109FEF7DCFFA0EB080077
:1038E000B04200E009E001D3701C50D1E08E002806
:1038F000CDD1E08F0028CAD13FE0206B216800784D
:103900000873206B401C2063E08E401EE0862EE092
:103910002068816889070FD5E18E69B1B9F1010F7F
:103920000AD1216B09780173206B401C2063E08E63
:10393000401EE0864FF0000920688168C9070CD05E
:10394000E18F51B1C068A16B0870A06B401CA063EF
:10395000E08F401EE0874FF00109FEF79BFFA0EBD0
:103960000800B04202D3701C01D010E07EB1E08E9E
:103970000028CDD1E08F0028CAD1424631462046EA
:1039800002F0CCFF28B101272020606507E0032763
:1039900005E0A06818B92068C1688068009001201F
:1039A00084F85100002084F8500038462CE710B508
:1039B000401EB0F1807F01D3012010BD4FF0E02404
:1039C00060610F21601703F09BFD0020A0610720BC
:1039D0002061002010BD10B590F83C20012A22D0B3
:1039E000012280F83C20CA688C6822F4407222438D
:1039F0004C6822F4806222430C6822F40062224365
:103A00000C6922F4805222434C6922F40052224372
:103A1000C969002322F480420A4301684A6480F89D
:103A20003C30002010BD022010BD70B590F83C2045
:103A3000012A19D0012400F83C4F0222427050F8AC
:103A40003C3C5A689D6822F070060A684968324317
:103A500025F0800529435A6050F83C2C9160447051
:103A600000210170084670BD022070BD10B5040031
:103A700003D094F83D0010B107E0012010BD0020F4
:103A800084F83C00204600F00DF8022084F83D0048
:103A9000211D206803F03CF8012084F83D0000203F
:103AA00010BD000008B52349026823488A4207D1A7
:103AB000016841F001010160006800F001000AE0C6
:103AC0001D491E4B091F9A4207D1086840F00200A9
:103AD000086008681FE0009008BD194B9A4207D1A2
:103AE000086840F004000860086800F00400F2E78D
:103AF000144B9A4207D1086840F008000860086833
:103B000000F00800E7E710498A4207D1016841F058
:103B100002010160006800F00200DCE70B498A4204
:103B2000DAD1016841F400310160006800F400302E
:103B3000D1E700000000014044380240000400408A
:103B400000080040000C0040000401400044014017
:103B500070B5044690F83C00012817D0012584F880
:103B60003C50022084F83D002068826822F07702F1
:103B700022F47F4282600868502830D00DDC202873
:103B80004DD005DC98B310283BD148E0022070BD31
:103B9000302844D0402834D139E0602828D070281B
:103BA00006D0B0F5805F2CD0B0F5005F29D10AE0D7
:103BB000CB68D1E90121206803F01BF820688168F7
:103BC00041F0770109E0CB68D1E90121206803F0D9
:103BD00010F82068816841F48041816011E0CA6872
:103BE0004968206803F0DAF85021206807E016E001
:103BF000CA684968206803F0E2F86021206803F091
:103C000002F884F83D50002084F83C0070BDCA687A
:103C10004968206803F0C2F840212068EFE7226875
:103C200001461046EBE7000030B587B0044614218A
:103C30006846FCF746FD344D2368002433480221D2
:103C40000122AB420FD1036843F010030360006808
:103C500000F01000059008028DE81300CDE9034242
:103C600069462B4811E02B4CA34212D1036843F064
:103C700004030360006800F004000590A0158DE8BF
:103C800007000391049169462348FEF725FD07B01C
:103C900030BD224CA3420FD1036843F008030360F8
:103CA000006800F00800059020148DE807000391DB
:103CB000049169461A48E8E71A4CA34210D10368F8
:103CC00043F080030360006800F0800005904FF42B
:103CD000E0508DE807000391049169461248D4E74B
:103CE000124CA342D3D1036843F020030360006861
:103CF00000F02000059040208DE807000320CDE96A
:103D0000031069460A48C0E700000140303802400D
:103D1000001002400004004000080240000800407B
:103D2000000C0240000C0040001C02400044014016
:103D30000014024070B5044690F83C000D4601287E
:103D40000DD0012684F83C60022084F83D0042B189
:103D5000042A18D0082A2AD00C2A4DD139E0022092
:103D600070BD206802F058FF2068816941F00801A9
:103D700081612068816921F0040181612068816985
:103D80002A69114311E0206802F076FF20688169FA
:103D900041F4006181612068816921F48061816161
:103DA000206881692A6941EA0221816124E0206852
:103DB00002F098FF2068C16941F00801C1612068E4
:103DC000C16921F00401C1612068C1692A691143F8
:103DD00011E0206802F0BAFF2068C16941F4006177
:103DE000C1612068C16921F48061C1612068C16935
:103DF0002A6941EA0221C16184F83D60002084F80B
:103E00003C0070BD10B5040003D094F83D0010B123
:103E100007E0012010BD002084F83C00204600F09F
:103E20000CF8022084F83D00211D206802F070FE8D
:103E3000012084F83D00002010BD704710B50446F5
:103E40000068012202F0C8FE0B492068884202D0B7
:103E50000A49884203D1416C41F400414164206821
:103E6000816801F00701062903D0016841F00101D2
:103E70000160002010BD000000000140000401406E
:103E800010B504460068002202F0A6FE114841F277
:103E9000111221689310814202D00F48814209D14A
:103EA000086A104206D1086A184203D1486C20F40F
:103EB000004048642068016A114206D1016A194233
:103EC00003D1016821F001010160012084F83D0067
:103ED000002010BD000001400004014070470000B8
:103EE00070B5026804461068D168536910F00F0F6E
:103EF00050D003F0010501F4907635435DD0C20740
:103F000005D0CA0503D5E26B42F00102E263420725
:103F100005D5DA0703D0E26B42F00202E2638207C2
:103F200005D5DA0703D0E26B42F00402E263020730
:103F300005D5DA0703D0E26B42F00802E263E26BD8
:103F4000002A33D0800604D5880602D5204602F028
:103F50005EFF20684069E16BC0F38010090700D460
:103F600028B3204602F045FF2068416949061AD56A
:103F7000416921F040014161606BA0B11B490165BD
:103F8000606BFEF704FA002810D0606B016DBDE88D
:103F900070400847830610D58B060ED52046BDE835
:103FA000704002F034BF2046FFF798FF70BD2046F6
:103FB000FFF794FF0020E06370BD030606D50B06F3
:103FC00004D52046BDE8704003F0C2B84006F3D5E2
:103FD0004806F1D5D168204621F04001D16020216A
:103FE00084F8391000F0C9F970BD0000E36D0008D5
:103FF00070B5040004D094F83900002510B106E033
:10400000012070BD84F83850204600F023F82420A9
:1040100084F839002068C16821F40051C16020464D
:1040200002F040FF2068016921F49041016120689D
:10403000416921F02A0141612068C16841F40051C1
:10404000C160E563202084F8390084F83A0000203C
:1040500070BD00002DE9F04F87B005461421684679
:10406000FCF72FFB9148DFF8408214380221D5F885
:1040700000C0DFF83892012203230F040024061544
:104080004FF0070EC4455DD1D9F8008048F0100804
:10409000C9F80080D9F800C00CF0100CCDF814C09D
:1040A000D0F800C04CF0020CC0F800C0D0F800C03E
:1040B0000CF0020CCDF814C0D0F800C04CF0010C8C
:1040C000C0F800C000688B4600F001000590802019
:1040D000CDE9000B0292CDE9033E92469846F146A7
:1040E00069467348FEF7F8FA7010CDE9000BCDF879
:1040F00008A069466F48CDE90389FEF7EDFADFF8BD
:10410000BC816D494046C8F800107104C0E9011433
:10411000C0E90346C8F81440C8F81840C8E9074782
:10412000C8F82440FEF716FA08B1FDF7E0FAC5F822
:104130003480002205212520C8F83850FEF7AEFE55
:1041400025204AE0DFF87881C4454BD1DFF85CC117
:10415000ACF1040CDCF8008048F48028CCF8008036
:10416000DCF800C00CF4802CCDF814C0D0F800C0EE
:104170004CF0040CC0F800C0006800F0040005908A
:104180004FF440608DE80F4069464E48FEF7A4FAB0
:10419000DFF828814C4908F160084046C8F8001053
:1041A0004FF00061C0E90114C0E90346C8F81440AB
:1041B000C8F81840C8E90747C8F82440FEF7CAF90C
:1041C00008B1FDF794FAC5F83480002204212720B5
:1041D000C8F83850FEF762FE2720FEF751FE07B000
:1041E000BDE8F08FDFF8E480C445F8D1D9F800804D
:1041F00048F02008C9F80080D9F800C00CF0200C65
:10420000CDF814C0D0F800C04CF0400CC0F800C08D
:10421000006800F0400005904FF484408DE80F00E6
:104220000820049069462A48FEF756FADFF88C8089
:10423000214908F1C008603940464FF02069C8F8AC
:104240000010C0E90194C0E90346C8F81440C8F85A
:104250001840C8E90747C8F82440FEF77BF908B1C1
:10426000FDF745FA14481B4FC5F834801830C8F8DC
:104270003850E7E80209402051C7800247F8144946
:10428000BC61C7E9074013487C62FEF763F908B1D7
:10429000FDF72DFA2F63002205214720BD63FEF7AD
:1042A000FDFD472099E7000000100140443802401E
:1042B000000402400000024088640240FC0C002020
:1042C00000480040000802402860024000140140FD
:1042D000001802401C0E002090F83A30202B22D10A
:1042E000F9B1F2B190F83830012B1CD0816282858F
:1042F000C2850021C163222280F83A2080F838105C
:104300000168CA6842F48072CA6001684A6942F072
:1043100001024A610068C16841F02001C1600020CB
:104320007047012070470220704700000249884210
:1043300001D106F0C3B870473C0C002090F839302A
:10434000202B18D1A9B1A2B190F83830012B12D08E
:1043500001628284C2840021C163212280F8392055
:1043600080F838100068C16841F08001C160002009
:10437000704701207047022070477047FEE70168D0
:104380004A69D24352050FD46FF480624A6100211A
:1043900040F8301F202242738173026942F0040208
:1043A0000261017301207047002070472DE9F84F2A
:1043B0000446006889460B9D01689846174641F4FB
:1043C000806101602068016841F48071016000959E
:1043D0004FF0011A0022514620460A9B00F0CAF80D
:1043E000002853D1216809F0FE0008610AF1010B91
:1043F0002B46594620460A9A00F0F0F8F0BB206898
:104400004169806900902A4620460A9900F064F9C3
:1044100040B1206C042839D12068016841F4007152
:10442000016033E0FEB2B8F1010F09D02168380A0B
:1044300008612A4620460A9900F04EF90028E8D182
:10444000206806612A4620460A9900F045F90028AE
:10445000DFD12068016841F480710160009500227D
:10446000514620460A9B00F085F838B9216809F0CA
:10447000FF0040F0010008612B4600E006E05946CD
:1044800020460A9A00F0AAF8002800D00120BDE8D2
:10449000F88F00002DE9F843044600680D46DDE979
:1044A000089701689846164641F4807101604B46B2
:1044B00000224FF001112046009700F05BF8E0B9B0
:1044C000216805F0FE0008613B464A461549204632
:1044D00000F084F888B920684169806900903A4604
:1044E0004946204600F0F8F850B1206C042804D169
:1044F0002068016841F4007101600120BDE8F88383
:10450000F5B2B8F1010F09D02168300A08613A46C6
:104510004946204600F0E0F80028E6D12068056111
:104520000020EBE70200010070B516460D46044678
:104530000DE02046FFF723FF08B1012070BD681C85
:1045400005D0FEF7A7F9801BA84207D835B120682F
:104550004069C0434007ECD4002070BD002044F8FF
:10456000300F20216173A073216941F02001216186
:104570002073E2E72DE9F0471E4690460D460446BB
:10458000C1F30747DDF8209008E0701C06D0FEF765
:1045900081F9A0EB0900B0420FD876B12068012F55
:1045A00018D0806925EA00000004000C14D0002116
:1045B0004145EAD00020BDE8F087002044F8300FE4
:1045C00020216173A073216941F0200121612073D2
:1045D0000120F0E74069E5E70121E9E72DE9F0472F
:1045E0009A4691460E46044600254FF02008C1F336
:1045F000074725E020684069C043400514D420687F
:10460000016841F40071016021686FF480604861C5
:10461000256384F83D8084F83E50206C40F004000F
:10462000206484F83C501FE0B9F1FF3F08D0FEF74A
:1046300031F9A0EB0A0149450CD8B9F1000F09D0B6
:104640002068012F13D0806926EA00000004000CC6
:104650000BD0CFE744F8305F84F80D80A573206954
:1046600040F02000206125730120BDE8F0874069FB
:10467000EAE72DE9F041002590460E460446202742
:1046800017E04069C043C0060CD454F8301B6FF0EB
:104690001000486144F810596777A577206A2062B6
:1046A000257717E0FEF7F6F8A0EB0800B04208D82F
:1046B0003EB120684169C9434906E2D40020BDE803
:1046C000F08144F8305F6773A573206940F02000E3
:1046D000206125730120F2E770B516460D460446A9
:1046E0000DE02046FFF74BFE08B1012070BD681CAD
:1046F00005D0FEF7CFF8801BA84207D835B1206857
:104700004069C0430006ECD4002070BD002044F88E
:10471000300F20216173A073216941F020012161D4
:104720002073E2E70EB5072000E0642008F0CEFD1C
:10473000FCF724FC0028F8D102E0642008F0C6FD54
:1047400008F0F0FA0028F8D17F4A101DCDE90102E7
:10475000A2F1100808F10401FCF728FC4346A3F17C
:10476000340208F1480AA2F10C01A1F10C00CDF8C5
:1047700000A008F023F9DFED750A9FED750A754A70
:10478000002108F1640000F08BFEA8F13402A2F1D0
:104790000C0101F11800FCF75DF9A8F14007A7F141
:1047A000180597ED000AA5F10C0685ED000AA5F1A4
:1047B000180986ED000A89ED000A97ED010A00202C
:1047C00085ED010A86ED010A89ED010A97ED020ADD
:1047D00085ED020A86ED020A89ED020A08F0ACFDB9
:1047E0000AF00EFD5C4C5D4920611020C86108464E
:1047F000FEF72BFF08B1FCF77AFF5749082220315A
:10480000A1F1080002F012F8012020714FF0FF3BE7
:104810005946012009F028FE0128F9D12078000727
:1048200008D5207820F0080020704B4801992130ED
:10483000FCF774FB607840070BD5607820F004002B
:104840006070414A08F104011032A2F12A00FCF71D
:104850001BFBA07840070CD5A07820F00400A070C6
:104860003D4802991630FCF77BFC98ED040A08F0ED
:10487000A9F9354BCDF800A0103BA3F13402A2F109
:104880000C01A1F10C0008F099F8D6ED000A9FED9B
:10489000341AC9ED000A95ED000A2B4B86ED000A8B
:1048A00060EE011A9FED2F0A97ED002A443B40EE7F
:1048B000801ADFED2D0AA3F1240202F10C0101F1AF
:1048C000240042EE201AC5ED001AD6ED011AC9EDFA
:1048D000011A95ED012A86ED012A22EE012A01EE48
:1048E000802AD7ED011A01EEA02A85ED012AD6ED26
:1048F000021AC9ED021A95ED022A86ED022A22EE6D
:10490000011A01EE801A97ED020A00EE201A9FEDBF
:10491000170A85ED021AFCF7F7F90B4B203B1A1F1B
:10492000111FA1F1100007F053F9E07810F0010019
:10493000E0703FF46DAFE07820F00100E070E078C7
:1049400040F00200E07063E7F07E002000808945BF
:1049500000A08C457013010830010020A40900203C
:104960005AF8F63F5D896EBFD5A9183B6F12833A9E
:104970002DE9F04F09ACDDE90C6594E880060024D0
:10498000DDF838B007E000BFC4F10208641C00F88D
:1049900008C0032C04DA11F804C0BCF1000FF3D1F5
:1049A00010F8031F62F302010170018863F389119B
:1049B0000180417867F385014170828869F30902BB
:1049C0008280B0F805206AF38C02A0F80520C18827
:1049D00066F34F11C180B0F8091065F38C01A0F89F
:1049E000091042896BF34F124281BDE8F08F00003D
:1049F0007FB5002415480094019402941249039451
:104A000001604FF48031C0E901140461047680F83C
:104A100020400F49C0E90A140125C561C46080F82F
:104A200030404561FCF782FF08B1FCF760FE1020C2
:104A3000CDE90005694602940448FCF7D1FE002840
:104A400001D0FCF754FE7FBD002001407C0E002009
:104A50000100000F7FB500241548009401940294D2
:104A60001249039401604FF48031C0E901140461DC
:104A7000047680F820400F49C0E90A140125C56179
:104A8000C46080F830404561FCF750FF08B1FCF786
:104A90002EFE0820CDE90005694602940448FCF783
:104AA0009FFE002801D0FCF722FE7FBD00220140BE
:104AB000C40E00200100000F0F4810B50D49016021
:104AC0000321416000214FF410228160C0E90312EC
:104AD0004FF400124261017641768176C17601770A
:104AE0004177FDF704FA002803D0BDE81040FCF739
:104AF000FEBD10BD00640040E00800200F4810B566
:104B00000D4901600321416000214FF410228160B2
:104B1000C0E903124FF400124261017641768176BA
:104B2000C17601774177FDF7E2F9002803D0BDE8AF
:104B30001040FCF7DCBD10BD0068004008090020F3
:104B4000214808B5016841F400110160016801F4D1
:104B500000110091016841F48001016000680022A9
:104B600000F48000009005210C20FEF797F90C203E
:104B7000FEF786F9002205213920FEF78FF939204A
:104B8000FEF77EF9002205213A20FEF787F93A2048
:104B9000FEF776F9002205213B20FEF77FF93B2046
:104BA000FEF76EF9002205214420FEF777F9442034
:104BB000FEF766F9002205214520FEF76FF9BDE8F2
:104BC00008404520FEF75CB93038024010B5B2B05D
:104BD0001C2227496846FBF718FD0021684608F0AB
:104BE00081FB244C22491C22A0611C3107A8FBF741
:104BF0000CFD002107A808F075FB1D4960601C2210
:104C000038310EA8FBF701FD00210EA808F06AFB61
:104C10001749A0601C22543115A8FBF7F6FC0021AF
:104C200015A808F05FFB124920601C2270311CA8F7
:104C3000FBF7EBFC00211CA808F054FB0C49206199
:104C40001C228C3123A8FBF7E0FC002123A808F0EC
:104C500049FB074960611C22A8312AA8FBF7D5FC53
:104C600000212AA808F03EFBE06032B010BD000031
:104C700008120108000000202DE9F04387B014213C
:104C80006846FBF71EFD5F480026016841F00201FF
:104C90000160016801F002010591016841F04001E5
:104CA0000160016801F040010591016841F00101D6
:104CB0000160016801F001010591016841F00801FE
:104CC0000160016801F008010591016841F00401EB
:104CD0000160016801F004010591016841F0800163
:104CE0000160016801F080010591016841F0200137
:104CF0000160016801F020010591016841F0100197
:104D000001600068404F00F0100005900122402132
:104D10003846FDF7B9FDDFF8F48001221021404646
:104D2000FDF7B2FDDFF8E890012211464846FDF795
:104D3000ABFD01244020CDE90004029469463846C9
:104D40000394FDF7C9FC334D0920CDE90005694600
:104D500002943846FDF7C0FC0720CDE900062E4F2F
:104D6000694638460296FDF7B7FC1020CDE90004ED
:104D70000226CDE9024669464046FDF7ADFC3020EB
:104D8000CDE90005694602943846FDF7A5FCE0022E
:104D9000CDE90005694602942048FDF79DFCCDE968
:104DA00002460094694648460194FDF795FC0621A9
:104DB00000220846FEF772F80620FEF761F800228E
:104DC00005210920FEF76AF80920FEF759F80022AC
:104DD00005210A20FEF762F80A20FEF751F80022AA
:104DE00005211720FEF75AF81720FEF749F8002290
:104DF00005212820FEF752F82820FEF741F807B0D9
:104E0000BDE8F08330380240001802400000024044
:104E1000000402400000211000080240001002407F
:104E20000D4810B50B4901600C49416000214FF459
:104E300080428160C0E9031241618161C161016208
:104E4000FDF72EFD002803D0BDE81040FCF74FBC55
:104E500010BD0000005C004030090020801A0600F0
:104E60000C4810B50A49016000217C22C0E90112FA
:104E700040F67F42C0E9032141618161FEF768FB92
:104E8000002803D0BDE81040FCF731BC10BD000085
:104E90000028004084090020104810B50E49016028
:104EA0004FF482714160002102228160C0E9031247
:104EB00001224261520282613822C0E90721416227
:104EC00081620A21C162FEF7C0FB002803D0BDE861
:104ED0001040FCF70CBC10BD00300140A4090020BC
:104EE00010B588B01C216846FBF7EBFB144813494A
:104EF0000024C0E9001441F28731C0E90241046195
:104F00008461FEF7B3FD08B1FCF7F1FB0C48FEF736
:104F100079FF08B1FCF7EBFB6020CDE900040294B7
:104F20000022694606480494FEF704FF08B1FCF726
:104F3000DEFB0348FEF778FE08B010BD00440140D8
:104F4000FC0B002010B596B000240F94109411941F
:104F5000129413941C2108A81494FBF7B2FB20218F
:104F60006846FBF7AEFB2A4828490160A721C0E943
:104F7000011444F61F61C0E903148021C0E9054112
:104F8000FEF774FD08B1FCF7B2FB4FF480500F90B0
:104F90000FA91F48FEF7DCFD08B1FCF7A8FB1C4871
:104FA000FEF730FF08B1FCF7A2FB139413A91848D1
:104FB0001494FEF73AFD08B1FCF799FB60200890C5
:104FC0004FF4FA60CDE909040B940C940D9400227F
:104FD00008A90F480E94FEF7ADFE08B1FCF787FB59
:104FE00000944FF40050CDE90440029401940394DE
:104FF000694607480794FEF7EEFC08B1FCF777FB1B
:105000000348FEF711FE16B010BD0000000001407D
:10501000BC0A002010B58EB00024079408940994AF
:105020000A940B941C2168460C94FBF74AFB1E481B
:105030001C49C0E9001442F2CF01C0E902410461F9
:105040008461FEF713FD08B1FCF751FB4FF480506B
:10505000079007A91448FEF77BFD08B1FCF747FB52
:105060001148FEF7CFFE08B1FCF741FB0B940BA9EA
:105070000D480C94FEF7D9FC08B1FCF738FB602012
:10508000CDE9000402940822694607480494FEF71B
:1050900051FE08B1FCF72BFB0348FEF7C5FD0EB02F
:1050A00010BD000000040040FC0A002010B58EB0C6
:1050B00000240794089409940A940B941C216846D0
:1050C0000C94FBF7FEFA1E481C490160A721C0E9B9
:1050D00001144FF6FF71C0E903148461FEF7C6FCAA
:1050E00008B1FCF704FB4FF48050079007A914485F
:1050F000FEF72EFD08B1FCF7FAFA1148FEF782FE22
:1051000008B1FCF7F4FA0B940BA90D480C94FEF7C8
:105110008CFC08B1FCF7EBFA6020CDE900040294A6
:105120000822694606480494FEF704FE08B1FCF71D
:10513000DEFA0348FEF778FD0EB010BD000800400F
:105140003C0B002010B58EB00024079408940994FD
:105150000A940B941C2168460C94FBF7B2FA26487B
:105160002449C0E900144FF6FF71C0E9024104610F
:105170008461FEF77BFC08B1FCF7B9FA4FF480506C
:10518000079007A91C48FEF7E3FC08B1FCF7AFFA4B
:105190001948FEF737FE08B1FCF7A9FA0B940BA9E2
:1051A00015480C94FEF741FC08B1FCF7A0FA60200A
:1051B000CDE900040294002269460F480494FEF7EA
:1051C000B9FD08B1FCF793FA042269460A48FEF7D4
:1051D000B1FD08B1FCF78BFA082269460648FEF7D4
:1051E000A9FD08B1FCF783FA0348FEF71DFD0EB0D8
:1051F00010BD0000000C00407C0B002010B586B0F4
:1052000000241748009401940294039404941349D1
:1052100005940160A721C0E9011444F61F61C0E9AB
:10522000031444618461FEF721FC08B1FCF75FFAC6
:105230004FF48050009069460948FEF789FC08B198
:10524000FCF755FA049404A905480594FEF7EDFB14
:10525000002801D0FCF74BFA06B010BD0004014055
:10526000BC0B00200C4810B50A4901604FF4E13135
:105270004160002181600C22C160C0E9041281619B
:10528000C161FEF7B5FE002803D0BDE81040FCF771
:105290002EBA10BD001001403C0C00200D4810B586
:1052A0000B4901600C49416000214FF4806281602C
:1052B000C0E903120C22C0E90521C161FEF798FE86
:1052C000002803D0BDE81040FCF711BA10BD000063
:1052D000004800407C0C0020A08601000C4810B55E
:1052E0000A4901604FF4E1314160002181600C22E4
:1052F000C160C0E904128161C161FEF779FE002836
:1053000003D0BDE81040FCF7F2B910BD0014014015
:10531000BC0C0020FEE70000154990ED131AD1EDFA
:10532000020A71EE600AC0ED100AF5EEC00AF1EE55
:1053300010FA02DD30EEC00A01E030EE800AB0EE75
:10534000E02AF0EEC01AF4EEC21AF1EE10FA02D220
:1053500080ED110A01E0C0ED110A90ED0E0AD0EDCA
:10536000110A30EE200A80ED0E0A81ED021A704714
:10537000E401002070470000A0B1D0ED101AC0ED8C
:10538000111A90ED0F1A80ED101AC0ED060A80ED8B
:10539000070A30EEC00A80ED0F0A017829B1012911
:1053A0003BD078E09FED3D0A7047D0ED010A60EEFA
:1053B000801AC0ED091AD0ED0A0A90ED022A42EED9
:1053C000000A30EE410AC0ED0A0A90ED0D2A80ED88
:1053D0000E2A90ED0C2A80ED0D2A80ED0C0A90ED3E
:1053E000031A21EE001A80ED0B1A90ED050AF4EE77
:1053F000C00AF1EE10FA09DCB1EE400AF4EEC00A80
:10540000F1EE10FA02D390ED0A0A01E080ED0A0AEB
:1054100031EE800A30EE010A2BE070EE410A90ED89
:10542000012A20EE822A80ED092AD0ED020A60EEE0
:10543000800AC0ED0A0AD0ED0D2A72EE200AC0EDF6
:105440000E2AD0ED0C2AC0ED0D2AF0EE002A01EE56
:10545000620A30EE210A80ED0C0A90ED031A21EE6B
:10546000000A80ED0B0A30EE800AD0ED080A30EE1B
:10547000200A80ED080AD0ED040AB4EEE00AF1EE4D
:1054800010FA06DCF1EE600AB4EEE00AF1EE10FA72
:1054900001D2C0ED080A90ED080A70470000000034
:1054A000002828D0002A26D0017092ED001A80ED45
:1054B000011A92ED011A80ED021A92ED021A80EDA6
:1054C000031A80ED040A9FED0C0AC0ED050A80ED79
:1054D0000E0A80ED0D0A80ED0C0A80ED080A80EDC1
:1054E0000B0A80ED0A0A80ED090A80ED110A80EDB1
:1054F000100A80ED0F0A70470000000030B5144B11
:105500001C68656945F0400565611B68DC6844F00E
:105510001004DC600F4B1C68256825F00105256030
:105520001C682568ED07F7D11D680B4CAC601C6842
:10553000E06018680161186842601868016841F409
:10554000802101601868016841F00101016030BDEF
:105550007C0C00205C0D002004480040002801DC89
:10556000404200B2704710B50446B0F90600FFF79C
:10557000F5FF042801DA0020E08010BD70B5044674
:105580000068C168490614D44FF0FF31C160FDF7CF
:1055900081F905464FF47A7607E000BFFDF77AF906
:1055A000401BB04201D9032070BD2068C06840068E
:1055B000F4D5002070BD00002DE9F74FF84981B007
:1055C0000868026822F001020260F6480268136867
:1055D00023F00103136003E00A6822F001020A606D
:1055E000EF4909680A68D207F6D103E0016821F0A3
:1055F00001010160EB4800680168C907F6D1EA487B
:10560000EA4AEB4BD0F84C90E84CE94DE74EE84FB6
:10561000DFF898E3DFF894C3D9F80000E449483A8A
:10562000603318341835303E78374FF4006A0CF187
:10563000300C704535D9884205D0904203D098424D
:1056400001D0A04201D1202026E0A84205D0B042DE
:1056500003D0B84201D0604501D150461CE0DFF8CC
:10566000508308F13008404511D0DFF84083A8F19D
:10567000180840450BD0DFF8388308F19008404502
:1056800005D0DFF8288308F14808404502D14FF4DF
:10569000001001E04FF00060DFF81083A8F14C0823
:1056A0003AE0DFF80C8308F1A808404537D9884272
:1056B00005D0904203D0984201D0A04201D12020D1
:1056C00026E0A84205D0B04203D0B84201D06045E0
:1056D00001D150461CE0DFF8D88208F1300840457F
:1056E00011D0DFF8C882A8F1180840450BD0DFF8C8
:1056F000C08208F19008404505D0DFF8B08208F17B
:105700004808404502D14FF4001001E04FF000601E
:10571000DFF89882A8F15008C8F8000074E0DFF8BC
:10572000908208F14808404537D9884205D0904218
:1057300003D0984201D0A04201D1202026E0A84207
:1057400005D0B04203D0B84201D0604501D15046E7
:105750001CE0DFF85C8208F13008404511D0DFF82A
:105760004C82A8F1180840450BD0DFF8448208F1BC
:105770009008404505D0DFF8348208F148084045DC
:1057800002D14FF4001001E04FF00060DFF82082FA
:10579000A8F11008C8F80C0036E0884205D0904205
:1057A00003D0984201D0A04201D1202026E0A84297
:1057B00005D0B04203D0B84201D0604501D1504677
:1057C0001CE0DFF8EC8108F13008404511D0DFF82B
:1057D000DC81A8F1180840450BD0DFF8D48108F12E
:1057E0009008404505D0DFF8C48108F148084045DD
:1057F00002D14FF4001001E04FF00060DFF8B081FB
:10580000A8F11008C8F80800D9F800004FF4806B20
:10581000704535D9884205D0904203D0984201D0D6
:10582000A04201D1102026E0A84205D0B04203D00A
:10583000B84201D0604501D158461CE0DFF87081C4
:1058400008F13008404511D0DFF86081A8F1180850
:1058500040450BD0DFF8588108F19008404505D04D
:10586000DFF8488108F14808404502D14FF4801024
:1058700001E04FF08060DFF83481A8F14C083AE095
:10588000DFF82C8108F1A808404537D9884205D0B7
:10589000904203D0984201D0A04201D1102026E0CE
:1058A000A84205D0B04203D0B84201D0604501D132
:1058B00058461CE0DFF8F88008F13008404511D068
:1058C000DFF8E880A8F1180840450BD0DFF8E08049
:1058D00008F19008404505D0DFF8D08008F148086D
:1058E000404502D14FF4801001E04FF08060DFF8B6
:1058F000BC80A8F15008C8F800007AE0DFF8B0805A
:1059000008F14808404537D9884205D0904203D075
:10591000984201D0A04201D1102026E0A84205D033
:10592000B04203D0B84201D0604501D158461CE0D6
:10593000DFF87C8008F13008404511D0DFF86C803A
:10594000A8F1180840450BD0DFF8648008F19008F2
:10595000404505D0DFF8548008F14808404502D1A1
:105960004FF4801001E04FF08060DFF84480A8F130
:105970001008C8F80C003CE0884205D0904203D0E3
:10598000984201D0A04201D110202CE0A84205D0BD
:10599000B04203D0B84201D060450BD1584622E056
:1059A000FC0900205C0A0020A40900205864024081
:1059B00010600240DFF8688940450FD0DFF8648945
:1059C00040450BD0DFF8588908F16008404505D004
:1059D000DFF8508908F16008404502D14FF480108B
:1059E00001E04FF08060DFF83889A8F14008C8F87E
:1059F0000800D9F80000704532D9884205D090429D
:105A000003D0984201D0A04201D1082023E0A8424F
:105A100005D0B04203D0B84201D0604502D14FF466
:105A2000007018E0DFF8F88840450FD0DFF8F48800
:105A300040450BD0DFF8E88808F16008404505D004
:105A4000DFF8E08808F16008404502D14FF40020FB
:105A500001E04FF00070DFF8CC88A8F1340837E09F
:105A6000DFF8BC8808F17808404534D9884205D071
:105A7000904203D0984201D0A04201D1082023E0F7
:105A8000A84205D0B04203D0B84201D0604502D14F
:105A90004FF4007018E0DFF8888840450FD0DFF839
:105AA000848840450BD0DFF8788808F160084045CD
:105AB00005D0DFF8708808F16008404502D14FF446
:105AC000002001E04FF00070DFF85888A8F1380896
:105AD000C8F800006EE0DFF8488808F11808404573
